:100000000C94B2040C94DA040C94DA040C94DA0420
:100010000C94DA040C94DA040C94DA040C94DA04E8
:100020000C94E5130C94DA040C94DA040C94DA04BE
:100030000C94DA040C94DA040C94DA040C94DA04C8
:100040000C949B130C94DA040C9469130C944313D2
:100050000C94DA040C94DA040C94DA040C94DA04A8
:100060000C94DA040C94DA04000000002400270049
:100070002A0000000000250028002B0000000008D6
:10008000000201000003040700000000000000005F
:10009000FFFFFFFF000000FFFFFFFF00496E6974D4
:1000A0002044656661756C7420436F6C6F72004903
:1000B0006E69740054494D454F55543A204D616363
:1000C000726F2053706565642041646A7573743A79
:1000D0002045584954004D6163726F205370656527
:1000E000643A20444F574E004D6163726F20537045
:1000F0006565643A205550004558495400454E54B2
:100100004552003A2000094D6163726F20537065BB
:1001100065642041646A7573743A200045584954F7
:1001200000454E544552003A2000094D6163726FFC
:100130002053706565642041646A7573743A2000C9
:100140004558495400454E544552003A2000094D47
:100150006163726F2053706565642041646A7573D2
:10016000743A20004558495400454E544552003ACF
:100170002000094D6163726F2053706565642041F2
:10018000646A7573743A2000574849544500424CDC
:10019000554500475245454E005245440009436FBE
:1001A0006C6F7220456469743A20455849543A206E
:1001B000000953746174696320576F726B4D6F64EB
:1001C000653A20454E54455200534D4F4F54480018
:1001D00046414445005354524F424500464C41531A
:1001E000480054494D454F55543A204D6163726F54
:1001F00053746F726520576F726B4D6F64653A2050
:10020000455849543A20004D6163726F53746F72C0
:100210006520576F726B4D6F64653A2053746F722F
:100220006520436F6C6F723A20534D4F4F54480016
:100230004D6163726F53746F726520576F726B4DAF
:100240006F64653A2053746F726520436F6C6F72F0
:100250003A2046414445004D6163726F53746F729A
:100260006520576F726B4D6F64653A2053746F72DF
:100270006520436F6C6F723A205354524F424500D1
:100280004D6163726F53746F726520576F726B4D5F
:100290006F64653A2053746F726520436F6C6F72A0
:1002A0003A20464C415348000953746174696320F5
:1002B000576F726B4D6F64653A20454E544552003E
:1002C000534D4F4F54480046414445005354524FFC
:1002D000424500464C415348004D6163726F537470
:1002E0006F726520576F726B4D6F64653A20455889
:1002F00049543A20000953746174696320576F723E
:100300006B4D6F64653A204558495400534D4F4F2B
:1003100054480046414445005354524F424500461C
:100320004C415348004D6163726F53746F72652086
:10033000576F726B4D6F64653A20454E5445523A83
:100340002000094D6163726F205370656564204120
:10035000646A7573743A204558495400534D4F4FA1
:100360005448004D6163726F52756E20576F726B07
:100370004D6F64653A204348414E47453A20000995
:100380004D6163726F2053706565642041646A75C6
:1003900073743A20455849540046414445004D6124
:1003A00063726F52756E20576F726B4D6F64653A52
:1003B000204348414E47453A2000094D6163726F22
:1003C0002053706565642041646A7573743A2045F2
:1003D000584954005354524F4245004D6163726F67
:1003E00052756E20576F726B4D6F64653A204348AB
:1003F000414E47453A2000094D6163726F205370AA
:100400006565642041646A7573743A20455849549F
:1004100000464C415348004D6163726F52756E2027
:10042000576F726B4D6F64653A204348414E4745A4
:100430003A20000953746174696320576F726B4DE1
:100440006F64653A204558495400534D4F4F544806
:10045000004D6163726F52756E20576F726B4D6FF6
:1004600064653A20454E5445523A20000953746160
:1004700074696320576F726B4D6F64653A204558FD
:1004800049540046414445004D6163726F52756E98
:1004900020576F726B4D6F64653A20454E5445523C
:1004A0003A20000953746174696320576F726B4D71
:1004B0006F64653A2045584954005354524F4245A1
:1004C000004D6163726F52756E20576F726B4D6F86
:1004D00064653A20454E5445523A200009537461F0
:1004E00074696320576F726B4D6F64653A2045588D
:1004F000495400464C415348004D6163726F527538
:100500006E20576F726B4D6F64653A20454E5445AF
:10051000523A2000574849544500424C554500473F
:100520005245454E005245440054494D454F55549F
:100530003A20436F6C6F7220456469743A204558C5
:1005400049543A2000574849544500424C5545000B
:10055000475245454E005245440009436F6C6F7247
:100560002044696D3A20444F574E3A20005748497D
:10057000544500424C554500475245454E005245B2
:10058000440009436F6C6F722044696D3A205550E6
:100590003A2000574849544500424C5545004752BF
:1005A00045454E0052454400436F6C6F72204564D0
:1005B00069743A20455849543A20005748495445EF
:1005C00000424C554500475245454E0052454400B7
:1005D000436F6C6F7220456469743A204368616EA2
:1005E0006765204D6F64653A2000574849544500BF
:1005F000424C554500475245454E00524544004344
:100600006F6C6F7220456469743A20454E544552B0
:100610003A2000094D61737465723A204F4E00090B
:10062000576869746520436F6C6F72204379636CFF
:100630006520434D4400094D6163726F205370651E
:1006400065642041646A7573743A204558495400C2
:10065000090953746174696320576F726B4D6F643D
:10066000653A20454E54455200094D6163726F5200
:10067000756E20576F726B4D6F64653A204558490F
:100680005400576869746520436F6C6F722043791A
:10069000636C6520434D4400576869746520436F5F
:1006A0006C6F72204379636C6520434D4400094DA3
:1006B00061737465723A204F4E0009537461746916
:1006C0006320436F6C6F7220434D443A2000094D04
:1006D0006163726F2053706565642041646A75734D
:1006E000743A204558495400090953746174696388
:1006F00020576F726B4D6F64653A20454E544552DA
:1007000000094D6163726F52756E20576F726B4DA9
:100710006F64653A204558495400537461746963A5
:1007200020436F6C6F7220434D443A200053746134
:1007300074696320436F6C6F7220434D443A20000C
:100740000953746174696320436F6C6F7220434D69
:10075000443A2000094D6163726F205370656564EF
:100760002041646A7573743A2045584954005748CB
:1007700049544500424C554500475245454E0052AC
:1007800045440009436F6C6F7220456469743A20D8
:10079000455849543A20000909537461746963202B
:1007A000576F726B4D6F64653A20454E5445520049
:1007B000534D4F4F54480046414445005354524F07
:1007C000424500464C41534800094D6163726F53E6
:1007D000746F726520576F726B4D6F64653A204578
:1007E0005849543A2000094D61737465723A204F9C
:1007F0004646004272696768746E65737320446987
:100800006D3A20444F574E00094D61737465723A3A
:10081000204F4E004272696768746E65737320449E
:10082000696D3A20555000094D6163726F20537015
:100830006565642041646A7573743A20455849546B
:1008400000574849544500424C55450047524545DC
:100850004E005245440009436F6C6F722045646935
:10086000743A20455849543A200009095374617478
:10087000696320576F726B4D6F64653A20454E5423
:10088000455200534D4F4F54480046414445005394
:1008900054524F424500464C41534800094D616354
:1008A000726F53746F726520576F726B4D6F646512
:1008B0003A20455849543A20004D61737465723AA4
:1008C000204F4646004D61737465723A204F4E00CA
:1008D00000EF08F7FF00000000EF0CF3FF3200000C
:1008E00000EF10EFFF50000000EF14EBFF7F00005F
:1008F00000EF09F600FF000000EF0DF200FFFF001F
:1009000000EF11EE0000000000EF15EA000000000B
:1009100000EF0AF50000FF0000EF0EF100000000FC
:1009200000EF12ED6400FF0000EF16E90000000088
:10093000000000002300260029000404040404042D
:10094000040402020202020203030303030301027E
:10095000040810204080010204081020010204084D
:100960001020E51411241FBECFEFD8E0DEBFCDBFAD
:1009700012E0A0E0B1E0ECE6F0E602C005900D92D6
:10098000A433B107D9F725E0A4E3B2E001C01D927A
:10099000A439B207E1F714E0C2EBD4E004C0219718
:1009A000FE010E942E30C13BD107C9F70E94691594
:1009B0000C9434300C940000E0918705F091880588
:1009C000238534852817390728F4809186058160AE
:1009D0008093860508950F931F93CF93DF93E09143
:1009E0008705F091880540918802828510E04817BC
:1009F00008F064C0142F11700091870201114FC0DC
:100A0000842F90E0880F991FE80FF91F0384F48565
:100A1000E02D2CEE3FEF112311F024E130E0C091E6
:100A20008502D09186022C0F3D1FC90163E470E05E
:100A30000E941A30E617F70760F0C90168E270E01B
:100A40000E941A306F5F7F4F81E090E06E177F0742
:100A500010F52C0F3D1FC90163E470E00E941A30AD
:100A6000E617F70750F0C90168E270E00E941A30FB
:100A70006F5F7F4F6E177F0760F42C0F3D1FC9011A
:100A800063E470E00E941A30E617F707E8F41FEFFE
:100A900015C082E090E090938402809383020F5F00
:100AA00000938702809183029091840208171906AF
:100AB00028F0109287024F5F40938802812FDF91C8
:100AC000CF911F910F910895C90168E270E00E94D3
:100AD0001A306F5F7F4F6E177F07C8F283E090E098
:100AE000DACFBC014091130420911104309112041B
:100AF00090E0491789F0F901215E3F4FD901129723
:100B00000D90BC91A02DA617B70721F4808191E02C
:100B1000892708959F5FEDCF81E00895AC01209172
:100B20001304E0911104F091120490E0291749F0A8
:100B3000658D768D6417750709F410829F5F7F9627
:100B4000F5CF0895AF92BF92CF92DF92EF92FF92CE
:100B50000F931F93CF93DF936C017B018B01040FE5
:100B6000151FEB015E01AE18BF08C017D10759F081
:100B70006991D601ED91FC910190F081E02DC601C3
:100B80000995892B79F7C501DF91CF911F910F91BD
:100B9000FF90EF90DF90CF90BF90AF900895FC0151
:100BA000538D448D252F30E0842F90E0821B930BD2
:100BB000541710F0CF96089501970895FC01918D78
:100BC000828D981761F0A28DAE0FBF2FB11D5D967B
:100BD0008C91928D9F5F9F73928F90E008958FEF1D
:100BE0009FEF0895FC01918D828D981731F0828DD1
:100BF000E80FF11D858D90E008958FEF9FEF089528
:100C0000FC01918D228D892F90E0805C9F4F821B8B
:100C100091098F739927089589E892E00E94000650
:100C200021E0892B09F420E0822F089580E090E0F4
:100C3000892B29F00E940C0681110C940000089564
:100C4000FC01A48DA80FB92FB11DA35ABF4F2C9141
:100C5000848D90E001968F739927848FA689B78938
:100C60002C93A089B1898C91837080648C93938D2F
:100C7000848D981306C00288F389E02D80818F7DD2
:100C800080830895EF92FF920F931F93CF93DF938A
:100C9000EC0181E0888F9B8D8C8D98131AC0E889B8
:100CA000F989808185FF15C09FB7F894EE89FF8987
:100CB0006083E889F98980818370806480839FBF25
:100CC00081E090E0DF91CF911F910F91FF90EF9025
:100CD0000895F62E0B8D10E00F5F1F4F0F73112735
:100CE000E02E8C8D8E110CC00FB607FCFACFE88970
:100CF000F989808185FFF5CFCE010E942006F1CFD2
:100D0000EB8DEC0FFD2FF11DE35AFF4FF0829FB7E3
:100D1000F8940B8FEA89FB8980818062CFCF0F9393
:100D20001F93CF93DF938C01D0E0C0E0F801EC0F6C
:100D3000FD1F6491662341F089E892E00E9442061B
:100D4000892B11F02196F2CFCE01DF91CF911F9127
:100D50000F910895CF93DF93EC01888D8823B9F02C
:100D6000AA89BB89E889F9898C9185FD03C08081B6
:100D700086FD0DC00FB607FCF7CF8C9185FFF2CF33
:100D8000808185FFEDCFCE010E942006E9CFDF9163
:100D9000CF91089590E0FC01E458FF4F2491FC01AD
:100DA000E25BF64F3491FC01E65CF64FE491EE23F2
:100DB000C9F0222339F0233001F1A8F4213019F1D0
:100DC000223029F1F0E0EE0FFF1FEE58FF4FA59102
:100DD000B4918FB7F894EC91611126C030953E2301
:100DE0003C938FBF08952730A9F02830C9F02430F4
:100DF00049F7809180008F7D03C0809180008F77BC
:100E000080938000DFCF84B58F7784BDDBCF84B53E
:100E10008F7DFBCF8091B0008F778093B000D2CFD1
:100E20008091B0008F7DF9CF3E2BDACFCF93DF9347
:100E300090E0FC01E25BF64F2491865C964FFC014A
:100E400084918823D1F090E0880F991FFC01E85924
:100E5000FF4FA591B491FC01EE58FF4FC591D4917D
:100E600061110EC09FB7F8948C91E22FE0958E230C
:100E70008C932881E223E8839FBFDF91CF9108956F
:100E80008FB7F894EC91E22BEC938FBFF6CFA6E2EC
:100E9000B3E011968C931197282F30E0F901E25BB3
:100EA000F64FE4911496EC931497F901E65CF64F33
:100EB000E491F0E0EE0FFF1FE05DF64F25913491D5
:100EC00013963C932E93129760E00C9416071F9391
:100ED000CF93DF93182FEB0161E00E941607209754
:100EE00039F460E0812FDF91CF911F910C94CA06F5
:100EF000CF3FD10511F461E0F5CFE12FF0E0E458E8
:100F0000FF4FE491E33031F140F4E130B1F0E230F1
:100F1000E1F0C038D1057CF7E4CFE73029F1E830C3
:100F200059F1E430B1F780918000806280938000B5
:100F3000D0938B00C0938A0004C084B5806884BDC0
:100F4000C7BDDF91CF911F91089584B5806284BDA4
:100F5000C8BDF7CF80918000806880938000D093D7
:100F60008900C0938800EDCF8091B00080688093A5
:100F7000B000C093B300E5CF8091B0008062809351
:100F8000B000C093B400DDCF3FB7F89480913D022C
:100F900090913E02A0913F02B091400226B5A89BDD
:100FA00005C02F3F19F00196A11DB11D3FBFBA2FFB
:100FB000A92F982F8827BC01CD01620F711D811DBB
:100FC000911D42E0660F771F881F991F4A95D1F740
:100FD00008952FB7F8946091390270913A02809188
:100FE0003B0290913C022FBF08954F925F926F9207
:100FF0007F928F929F92AF92BF92CF92DF92FF9299
:101000000F931F93CF93DF938C01F62E49015A0162
:10101000409113042091110430911204F90190E0E1
:101020008FEF491709F45FC0EF018F3F21F4508122
:10103000511101C0892F7F96DF0112976D917C912C
:101040006017710709F04DC01882CD80DE80B601AF
:1010500090E080E086169706A806B90678F122E0AF
:1010600030E03A832983F80120812B83FC82412CD4
:10107000512C20E8622E2FE3722E498E5A8E6B8EF1
:101080007C8E198A1A8A1B8A1C8A0E94752D2B0154
:101090003C01C501B4010E94752D9B01AC01C30147
:1010A000B2010E94742F6D8B7E8B8F8B988F20E006
:1010B00030E0A9010E94153018160CF1F801F082F9
:1010C00081E0DF91CF911F910F91FF90DF90CF9042
:1010D000BF90AF909F908F907F906F905F904F9058
:1010E00008959F5F9ECF8F3FA9F0E901FFE18F9F99
:1010F000C00DD11D112418821E8F0D8FA6CFD8864A
:10110000CF820E94E90769877A878B879C8781E075
:101110008883D7CF80E0D5CFCF93C82FFB018F3FF7
:10112000E9F581E792E00E947105882309F4DEC0A9
:101130008DE692E00E947105882309F4D7C089E604
:1011400092E00E947105882309F4D0C085E692E000
:101150000E947105882309F4C9C086E392E00E94C9
:101160007105882309F4C2C08EE091E00E947105E8
:10117000882309F4BBC08AE091E00E9471058823AE
:1011800009F4B4C086E091E00E947105882309F457
:10119000ADC082E091E0CF910C94710581116FC0D8
:1011A00081E792E00E948E058DE692E00E948E0516
:1011B00089E692E00E948E0585E692E00E948E0507
:1011C00086E392E00E948E058EE091E00E948E05FB
:1011D0008AE091E00E948E0586E091E00E948E05F3
:1011E00082E091E00E948E0526E930E040E050E088
:1011F00060E081E792E00E94F50726E930E040E0F8
:1012000050E060E08DE692E00E94F50726E930E0CC
:1012100040E050E060E089E692E00E94F50726E9B0
:1012200030E040E050E060E085E692E00E94F507A3
:1012300026E930E040E050E06FEF8EE091E00E9460
:10124000F50726E930E040E050E06FEF8AE091E0FA
:101250000E94F50726E930E040E050E06FEF86E0BD
:1012600091E00E94F50726E930E040E050E06FEFA2
:1012700082E091E00E94F5078C2FCF910895813094
:10128000B9F5C091520261E0C11160E0619526E9B3
:1012900030E040E050E081E792E00E94F50761E035
:1012A000C13009F060E0619526E930E040E050E0AF
:1012B0008DE692E00E94F50761E0C23009F060E03F
:1012C000619526E930E040E050E089E692E00E9436
:1012D000F50761E0C33009F060E0619526E930E090
:1012E00040E050E085E692E00E94F507C0E0C4CF00
:1012F000823009F526E930E040E050E060E081E727
:1013000092E00E94F50726E930E040E050E060E01E
:101310008DE692E00E94F50726E930E040E050E0DB
:1013200060E089E692E00E94F50726E930E040E0BF
:1013300050E060E0D7CF833009F4A3CF843019F5B3
:1013400026E930E040E050E060E08EE091E00E946D
:10135000F50726E930E040E050E060E08AE091E007
:101360000E94F50726E930E040E050E060E086E0CA
:1013700091E00E94F50726E930E040E050E060E0AF
:1013800082E091E0B1CF8530C9F4809144028B7F37
:1013900080934402809143028B7F8093430280912B
:1013A00042028B7F80934202809141028B7F809327
:1013B0004102128211821582138298CFC2E05CCF63
:1013C000CF92DF92EF92FF920F931F93CF93DF9311
:1013D0006C01809113040091110410911204F80122
:1013E00020E09FEF821791F1EF019F3F21F43081C0
:1013F000311101C0922F7F967F0132E0E31AF1088C
:10140000D701ED90FC90EC14FD04F1F418821A82DF
:10141000198280E090E0A0E8BFE3898F9A8FAB8FBC
:10142000BC8F58874F830E94E90769877A878B872B
:101430009C8781E08883DF91CF911F910F91FF906E
:10144000EF90DF90CF9008952F5FCCCF80E09F3F4B
:1014500091F3E801BFE19B9FC00DD11D11241882BB
:10146000DE8ECD8ED4CFCF93C82FFB018F3FE9F511
:1014700082E792E00E947105882309F4BDC08EE6E0
:1014800092E00E947105882309F4B6C08AE692E0D2
:101490000E947105882309F4AFC086E692E00E949D
:1014A0007105882309F4A8C087E392E00E947105C2
:1014B000882309F4A1C08FE091E00E947105882380
:1014C00009F49AC08BE091E00E947105882309F429
:1014D00093C087E091E00E947105882309F48CC0D5
:1014E00083E091E0CF910C94710581115FC010925F
:1014F000720210926E0210926A02109266021092AC
:101500000F0110920B01109207011092030182E764
:1015100092E00E948E058EE692E00E948E058AE699
:1015200092E00E948E0586E692E00E948E0587E397
:1015300092E00E948E05809144028860809344026C
:1015400080914302886080934302809142028860C8
:10155000809342028091410288608093410226E993
:1015600030E040E050E06FEF8FE091E00E94F5073F
:1015700026E930E040E050E06FEF8BE091E00E9420
:10158000F50726E930E040E050E06FEF87E091E0BA
:101590000E94F50726E930E040E050E06FEF83E07D
:1015A00091E00E94F5078C2FCF910895813031F59D
:1015B00026E930E040E050E060E08FE091E00E94FA
:1015C000F50726E930E040E050E060E08BE091E094
:1015D0000E94F50726E930E040E050E060E087E057
:1015E00091E00E94F50726E930E040E050E060E03D
:1015F00083E091E00E94F507C0E0D5CF8230E9F4A6
:1016000080914402877F8093440280914302877FC8
:101610008093430280914202877F809342028091AF
:101620004102877F809341024CE251E060E070E02C
:1016300087E392E00E94E009DFCF833029F4128231
:10164000118215821382D8CFC2E0ADCF0F931F93C2
:10165000909173028917B1F190917502992379F1F4
:1016600091E090937602109275028093730281E06C
:10167000809374020E94E90700917702109178022A
:101680002091790230917A02601B710B820B930BCF
:1016900060937B0270937C0280937D0290937E0224
:1016A0000E94E90760937702709378028093790231
:1016B00090937A02809174021F910F910895109275
:1016C0007602D1CF10927402F5CFCF93C82F8F3FFF
:1016D000E9F581E792E00E947105882309F4DFC0F3
:1016E0008DE692E00E947105882309F4D8C089E64E
:1016F00092E00E947105882309F4D1C085E692E04A
:101700000E947105882309F4CAC086E392E00E9412
:101710007105882309F4C3C08EE091E00E94710531
:10172000882309F4BCC08AE091E00E9471058823F7
:1017300009F4B5C086E091E00E947105882309F4A0
:10174000AEC082E091E0CF910C94710581114BC045
:101750001092710210926D0210926902109265024D
:1017600010920E0110920A011092060110920201CD
:1017700081E792E00E948E058DE692E00E948E0540
:1017800089E692E00E948E0585E692E00E948E0531
:1017900086E392E00E948E058EE091E00E948E0525
:1017A0008AE091E00E948E0586E091E00E948E051D
:1017B00082E091E00E948E058091440284608093D3
:1017C00044028091430284608093430280914202EC
:1017D0008460809342028091410284608093410240
:1017E0008C2FCF910895813019F526E930E040E043
:1017F00050E06FEF8EE091E00E94F50726E930E0BF
:1018000040E050E06FEF8AE091E00E94F50726E9A2
:1018100030E040E050E06FEF86E091E00E94F50795
:1018200026E930E040E050E06FEF82E091E035C023
:101830008230B9F5C091520261E0C11160E061955A
:1018400026E930E040E050E081E792E00E94F507B1
:1018500061E0C13009F060E0619526E930E040E0E8
:1018600050E08DE692E00E94F50761E0C23009F099
:1018700060E0619526E930E040E050E089E692E0E2
:101880000E94F50761E0C33009F060E0619526E948
:1018900030E040E050E085E692E00E94F507C0E0CD
:1018A0009FCF833009F526E930E040E050E060E06A
:1018B0008EE091E00E94F50726E930E040E050E03C
:1018C00060E08AE091E00E94F50726E930E040E020
:1018D00050E060E086E091E00E94F50726E930E004
:1018E00040E050E060E0A1CF843049F448EE53E09E
:1018F00060E070E086E392E00E94E009D0CF85309E
:1019000021F48FEFFB018083CACFC2E069CFCF9370
:10191000C82FFB018F3F29F486E392E0CF910C940E
:10192000710581110BC048EB5BE060E070E086E37D
:1019300092E00E94E0098C2FCF910895813059F4F4
:10194000158285E69BE0928381838FEF8083C48339
:10195000C383C0E0F0CFC2E0EECFCF93FB018F3F57
:1019600009F586E392E00E947105882309F454C0CA
:101970008EE091E00E947105882309F44DC08AE051
:1019800091E00E947105882309F446C086E091E049
:101990000E947105882309F43FC082E091E0CF9155
:1019A0000C94710581114DC086E392E00E948E0572
:1019B00080910E0181110CC080910A01811108C033
:1019C00080910601811104C0C0910201CC2331F144
:1019D00024E630E040E050E060E08EE091E00E94DC
:1019E000F50724E630E040E050E060E08AE091E076
:1019F0000E94F50724E630E040E050E060E086E039
:101A000091E00E94F50724E630E040E050E060E01D
:101A100082E091E00E94F507C0E010C08EE091E006
:101A20000E948E058AE091E00E948E0586E091E09A
:101A30000E948E0582E091E00E948E058C2FCF914E
:101A40000895C2E08130D1F7158227E83CE0328367
:101A500021839FEF908384838383DECFCF93C82F2E
:101A6000FB018F3FE9F581E792E00E947105882331
:101A700009F470C18DE692E00E947105882309F493
:101A800069C189E692E00E947105882309F462C168
:101A900085E692E00E947105882309F45BC186E324
:101AA00092E00E947105882309F454C18EE091E010
:101AB0000E947105882309F44DC18AE091E00E94DB
:101AC0007105882309F446C186E091E00E94710502
:101AD000882309F43FC182E091E0CF910C94710515
:101AE000811195C08091440282FD0CC08091430217
:101AF00082FD08C08091420282FD04C080914102B3
:101B000082FF60C080910E0181110DC080910A0199
:101B1000811109C080910601811105C080910201E7
:101B2000882309F44FC024E630E040E050E060E054
:101B300081E792E00E94F50724E630E040E050E0C3
:101B400060E08DE692E00E94F50724E630E040E098
:101B500050E060E089E692E00E94F50724E630E07C
:101B600040E050E060E085E692E00E94F50786E301
:101B700092E00E948E0524E630E040E050E060E014
:101B80008EE091E00E94F50724E630E040E050E06E
:101B900060E08AE091E00E94F50724E630E040E052
:101BA00050E060E086E091E00E94F50724E630E036
:101BB00040E050E060E082E091E00E94F5078C2F69
:101BC000CF91089581E792E00E948E058DE692E024
:101BD0000E948E0589E692E00E948E0585E692E0DD
:101BE0000E948E0586E392E00E948E058EE091E0D1
:101BF0000E948E058AE091E00E948E0586E091E0C9
:101C00000E948E0582E091E00E948E05D8CF81303F
:101C100009F069C01092710210926D02109269026F
:101C20001092650210920A011092060110920201B0
:101C300081E792E00E948E058DE692E00E948E057B
:101C400089E692E00E948E0585E692E00E948E056C
:101C500086E392E00E948E058EE091E00E948E0560
:101C60008AE091E00E948E0586E091E00E948E0558
:101C700082E091E00E948E0580914402846080930E
:101C80004402809143028460809343028091420227
:101C9000846080934202809141028460809341027B
:101CA00026E930E040E050E06FEF8EE091E00E94E6
:101CB000F50726E930E040E050E06FEF8AE091E080
:101CC0000E94F50726E930E040E050E06FEF86E043
:101CD00091E00E94F50726E930E040E050E06FEF28
:101CE00082E091E035C08230B9F5C091520261E0E6
:101CF000C11160E0619526E930E040E050E081E705
:101D000092E00E94F50761E0C13009F060E0619562
:101D100026E930E040E050E08DE692E00E94F507D1
:101D200061E0C23009F060E0619526E930E040E012
:101D300050E089E692E00E94F50761E0C33009F0C7
:101D400060E0619526E930E040E050E085E692E011
:101D50000E94F507C0E033CF833009F526E930E073
:101D600040E050E060E08EE091E00E94F50726E957
:101D700030E040E050E060E08AE091E00E94F5074A
:101D800026E930E040E050E060E086E091E00E942B
:101D9000F50726E930E040E050E060E0A1CF843074
:101DA00059F415828DEA9CE0928381838FEF8083C2
:101DB00081E084838383CECFC2E001CFCF93C82F4D
:101DC000FB018F3FB9F582E792E00E947105811116
:101DD00002C0C0E08DC08EE692E00E9471058823AB
:101DE000C1F38AE692E00E947105882391F386E6AA
:101DF00092E00E947105882361F387E392E00E94DC
:101E00007105882331F38FE091E00E9471058823EA
:101E100001F38BE091E00E9471058823D1F287E005
:101E200091E00E9471058823A1F283E091E0CF91B7
:101E30000C94710581115FC01092720210926E02B3
:101E400010926A021092660210920F0110920B011A
:101E5000109207011092030182E792E00E948E0522
:101E60008EE692E00E948E058AE692E00E948E0540
:101E700086E692E00E948E0587E392E00E948E053E
:101E8000809144028860809344028091430288607C
:101E90008093430280914202886080934202809145
:101EA000410288608093410226E930E040E050E042
:101EB0006FEF8FE091E00E94F50726E930E040E007
:101EC00050E06FEF8BE091E00E94F50726E930E0EB
:101ED00040E050E06FEF87E091E00E94F50726E9CF
:101EE00030E040E050E06FEF83E091E00E94F507C2
:101EF0008C2FCF910895813029F526E930E040E01C
:101F000050E060E08FE091E00E94F50726E930E0C4
:101F100040E050E060E08BE091E00E94F50726E9A8
:101F200030E040E050E060E087E091E00E94F5079B
:101F300026E930E040E050E060E083E091E00E947C
:101F4000F50747CF8230E9F480914402877F809380
:101F5000440280914302877F809343028091420232
:101F6000877F8093420280914102877F8093410264
:101F70004CE251E060E070E087E392E00E94E0090B
:101F800028CF8330F9F41282118215821382809156
:101F90005705909158058D5A9C4009F41ACF8091AD
:101FA0005B05811116CF8DEA9CE0909358058093D4
:101FB00057058FEF8093560581E080935A058093F3
:101FC000590507CFC2E094CFCF92DF92EF92FF92F4
:101FD00020ED38E050E040E0F901C590D590E59063
:101FE000F490C616D706E806F90649F04F5F5F4F32
:101FF000285F3F4F4C30510579F74FEF5FEFCA0133
:10200000FF90EF90DF90CF9008951F93CF93DF93D1
:102010000E94E40FEC01CF3FDC0709F45AC01C2FEB
:1020200060E0CC3050F4FE01FF2733E0EE0FFF1FDD
:102030003A95E1F7EC52F74F649124EF31E040E03C
:1020400050E08FE692E00E94F50760E01C3050F40B
:10205000FE01FF2723E0EE0FFF1F2A95E1F7EB5269
:10206000F74F649124EF31E040E050E08BE692E0DE
:102070000E94F50760E01C3050F4FE01FF2793E05A
:10208000EE0FFF1F9A95E1F7EA52F74F649124EFA4
:1020900031E040E050E087E692E00E94F50760E022
:1020A0001C3050F4FE01FF2783E0EE0FFF1F8A95DE
:1020B000E1F7E952F74F649124EF31E040E050E05E
:1020C00083E692E00E94F50781E0DF91CF911F91B6
:1020D000089580E0FACF8F929F92AF92BF92CF92F5
:1020E000DF92EF92FF924B015C010E94C4076B01EB
:1020F0007C0124E0C21AD108E108F1080E94C4075B
:102100006C197D098E099F09681579058A059B055B
:10211000A8F3FF90EF90DF90CF90BF90AF909F908B
:102120008F900895FC019B0124513109C90163E49A
:1021300070E00E941A30E617F70758F0C90168E20C
:1021400070E00E941A306F5F7F4F81E06E177F074B
:1021500008F480E008952F923F924F925F926F9221
:102160007F928F929F92AF92BF92CF92DF92EF9227
:10217000FF920F931F93CF93DF93CDB7DEB72A97CC
:102180000FB6F894DEBF0FBECDBF282E69875A0167
:102190003A8329833E2C9A012C5E3F4FC90163E4A8
:1021A00070E00E941A3078876F83C90168E270E09E
:1021B0000E941A309B012F5F3F4F3E832D839985EC
:1021C000892F90E0880F991F0B969A8789878091B5
:1021D000870590918805E985FA85E80FF91FFA8748
:1021E000E987412C512C32014394C12CD12C76012A
:1021F000222009F442C029813A81E985FA85A21694
:10220000B306D1F40280F381E02DFC83EB8331101F
:1022100017C0B8018B819C810E949210811123C04C
:10222000440C551C661C771C2A9429853A852C5F22
:102230003F4F3A872987DCCF80809180332049F057
:10224000CC0CDD1CEE1CFF1C29813A81A216B306C2
:1022500001F38F8198858816990610F3ED81FE8130
:10226000E815F905E8F2332019F06894C0F8D8CFE2
:10227000C428D528E628F728D3CFC0926C05D09281
:102280006D05E0926E05F0926F0581E02A960FB61B
:10229000F894DEBF0FBECDBFDF91CF911F910F919C
:1022A000FF90EF90DF90CF90BF90AF909F908F9076
:1022B0007F906F905F904F903F902F900895EF9296
:1022C0000F931F93FC01862F642FEE24E3949785D0
:1022D000911101C0E12C0185128523853485478148
:1022E00050850E94AB101F910F91EF9008950F93AE
:1022F0001F93CF93DF93EC01E0918705F091880560
:10230000058516852B813C812C5E3F4FC90163E416
:1023100070E00E941A3006171707A0F0C90168E2A2
:1023200070E00E941A306F5F7F4F6017710750F0A6
:102330006D817E8187859089DF91CF911F910F916B
:102340000C94921080E0DF91CF911F910F9108952E
:10235000FC0101900020E9F73197AF01481B590BB0
:10236000BC0189E892E00C94A205CF93DF930E9410
:102370008F06EC0187E192E00E94A8118C0F9D1F4F
:10238000DF91CF910895CF93DF930E94A811EC01C4
:1023900087E192E00E94A8118C0F9D1FDF91CF91E1
:1023A00008958F929F92AF92BF92CF92DF92EF9259
:1023B000FF920F931F93CF93DF93CDB7DEB7A19713
:1023C0000FB6F894DEBF0FBECDBF6C01990FEE08BB
:1023D000FF08F7FE47C06DE289E892E00E944206DE
:1023E0008C0122273327A9012C193D094E095F09C9
:1023F00019A2CE0181967C019AE0892E912CA12C04
:10240000B12CCA01B901A50194010E94A42E605DFE
:10241000F70162937F01211531054105510589F7C7
:1024200090E080E0309719F0CF010E94A811080FCA
:10243000191F87E192E00E94A811800F911FA196B9
:102440000FB6F894DEBF0FBECDBFDF91CF911F91C5
:102450000F91FF90EF90DF90CF90BF90AF909F9043
:102460008F900895A701960119A28E010F5D1F4F4D
:102470008AE0C82ED12CE12CF12CCA01B901A701A8
:1024800096010E94A42E605DF80162938F012115D0
:1024900031054105510589F7309729F0CF010E9498
:1024A000A8118C01C6CF10E000E0C3CF8091620577
:1024B000882319F060E00C94CA062D9808958823AB
:1024C00049F080916205882319F061E00C94CA06F6
:1024D0002D9A08950C9456124F925F926F927F92AC
:1024E0008F929F92AF92BF92CF92DF92EF92FF9224
:1024F000CF93DF93CDB7DEB72C970FB6F894DEBF3E
:102500000FBECDBF7C010E94C40769837A838B8391
:102510009C834B015C0120E0B0E0A0E0A701BD017D
:1025200045525109610971094D835E836F83788734
:10253000A701BD01475051096109710949875A87AF
:102540006B877C87F8945B9A8091810290918202DC
:102550008230910538F0880F991F880F991F0597D1
:102560000197F1F75B987894211107C0809163057A
:10257000823019F481E00E945F1280917F02909175
:102580008002880E991EA11CB11CF8940E94C407F9
:102590002B013C016B0169817A81C61AD70AF12CA3
:1025A000E12C8D819E81AF81B885C816D906EA06D7
:1025B000FB0634F080916305823011F40E945612BC
:1025C00049855A856B857C85C416D506E606F706CF
:1025D000B4F078942C960FB6F894DEBF0FBECDBF42
:1025E000DF91CF91FF90EF90DF90CF90BF90AF90B1
:1025F0009F908F907F906F905F904F90089521E013
:10260000481459046A047B0408F4C0CF9BCFEFE759
:10261000F2E08AE190E09183808388E090E0938308
:102620008283539A80E891E10E946C1260E871E124
:1026300080E090E00E946B1080E392E00E946C12B8
:1026400060E372E080E090E00E946B1080E392E033
:102650000C946C12EFE7F2E08AE190E091838083C2
:1026600088E090E093838283539A80E093E20E9413
:102670006C1260EC78E080E090E00E946B1080E3E8
:1026800092E00C946C121F920F920FB60F921124CD
:102690002F933F934F935F936F937F938F939F936A
:1026A000AF93BF93EF93FF9389E892E00E942006D7
:1026B000FF91EF91BF91AF919F918F917F916F911A
:1026C0005F914F913F912F910F900FBE0F901F90F0
:1026D00018951F920F920FB60F9211242F938F937C
:1026E0009F93EF93FF93E0919902F0919A0280817A
:1026F000E0919F02F091A00282FD1BC09081809129
:10270000A2028F5F8F732091A302821741F0E091A4
:10271000A202F0E0E757FD4F958F8093A202FF9150
:10272000EF919F918F912F910F900FBE0F901F905F
:1027300018958081F4CF1F920F920FB60F9211243B
:102740002F933F938F939F93AF93BF9380913902C1
:1027500090913A02A0913B02B0913C023091380234
:1027600023E0230F2D3758F50196A11DB11D2093AD
:1027700038028093390290933A02A0933B02B093BF
:102780003C0280913D0290913E02A0913F02B091A7
:1027900040020196A11DB11D80933D0290933E021F
:1027A000A0933F02B0934002BF91AF919F918F9150
:1027B0003F912F910F900FBE0F901F90189526E814
:1027C000230F0296A11DB11DD2CF1F920F920FB6FB
:1027D0000F9211242F933F934F935F936F937F93A7
:1027E0008F939F93AF93BF93CF93EF93FF93E0911A
:1027F0002803F0912903C08180912A03C823809186
:102800002B0390912C03019649F080912B0390911A
:102810002C03019690932C0380932B038091260325
:1028200081111DC0C1116EC080912B0390912C03AA
:102830008536910578F010922F0380912B039091AB
:102840002C03909332038093310381E08093300313
:102850008093260310922C0310922B0353C0809177
:1028600026038130A9F4CC2309F44CC0E091300355
:102870008E0F8093300380912B0390912C03F0E016
:10288000EE0FFF1FEA5DFC4F9487838782E0E0CF65
:1028900080912603823009F04FC0C11122C0E0911F
:1028A000300381E0E03768F080932F0383E080936A
:1028B0002603E0912D03F0912E03309759F20995EC
:1028C000C9CF8E0F8093300380912B0390912C03FE
:1028D000F0E0EE0FFF1FEA5DFC4F9487838781E0F5
:1028E000B7CF80912B0390912C038536910550F042
:1028F00083E080932603E0912D03F0912E0330971F
:1029000009F0099580916305813021F4C11180E0BF
:102910000E945F12FF91EF91CF91BF91AF919F9174
:102920008F917F916F915F914F913F912F910F9078
:102930000FBE0F901F90189580912603833011F7DA
:10294000C111E0CF87CFEF92FF920F931F93CF93E8
:10295000DF93EC01F62F8A01790190E080E030E00E
:10296000E0E0DE01AE0FB11D2C91222341F0320FC9
:102970002E9F800D911D11241C92FE1315C0332330
:1029800099F0532F5695850F911D632F70E00E948B
:102990001A30DE01A60FB11D3C93D8013C913111D4
:1029A0000EC06C9390E080E0EF5FFE17D0F681E000
:1029B000DF91CF911F910F91FF90EF900895D70174
:1029C0003C91332371F380E0F3CF10928C0210928C
:1029D0008B0288EE93E0A0E0B0E080938D029093AC
:1029E0008E02A0938F02B093900289E092E09093C0
:1029F0008A028093890285EC90E0909396028093FE
:102A0000950284EC90E0909398028093970280EC7A
:102A100090E090939A028093990281EC90E09093D9
:102A20009C0280939B0282EC90E090939E028093A4
:102A30009D0286EC90E09093A00280939F021092FA
:102A4000A2021092A3021092A4021092A50286E2A2
:102A500093E0909388058093870580E00E94470764
:102A60001092620510924D0510924E0510924F057E
:102A70001092530510925405109255051092590565
:102A800010925A0510925B0510925F051092600536
:102A900010926105E4E1F4E08AE495E020E130E0A1
:102AA00040E050E060E87FE3108236832583418F69
:102AB000528F638F748F7F968E179F07A9F784E1DB
:102AC00094E090931204809311048AE0809313049D
:102AD0000895CF93DF93CDB7DEB7EF970FB6F89495
:102AE000DEBF0FBECDBF789484B5826084BD84B54F
:102AF000816084BD85B5826085BD85B5816085BDF9
:102B000080916E00816080936E00109281008091B0
:102B10008100826080938100809181008160809338
:102B20008100809180008160809380008091B1005D
:102B300084608093B1008091B00081608093B00088
:102B400080917A00846080937A0080917A0082601C
:102B500080937A0080917A00816080937A008091DE
:102B60007A00806880937A001092C100E091990207
:102B7000F0919A0212E01083E0919502F091960292
:102B80001082E0919702F091980280E18083109288
:102B9000A102E0919D02F0919E0286E08083E09187
:102BA0009B02F0919C02808180618083E0919B0276
:102BB000F0919C02808188608083E0919B02F0917B
:102BC0009C02808180688083E0919B02F0919C024E
:102BD00080818F7D80838FEA90E00E94B51182E032
:102BE0000E9447071092620580916305816080937F
:102BF0006305259A1093B0001093B10084E680938A
:102C0000B3008093B4001092B20080912603833009
:102C100011F41092260384E08093700090911304C5
:102C2000E0911104F091120480E020E130E0981767
:102C300029F0368325838F5F7F96F9CF61E089E0A5
:102C40000E94CA0661E085E00E94CA0661E08AE04F
:102C50000E94CA0661E086E00E94CA0661E089E03F
:102C60000E94160761E085E00E94160761E08AE095
:102C70000E94160761E086E00E9416078CE990E04A
:102C80000E94B511E0E9F0E0649120ED37E040E00A
:102C900050E08FE692E00E94F507E1E9F0E06491F0
:102CA00020ED37E040E050E08BE692E00E94F5072F
:102CB000E2E9F0E0649120ED37E040E050E087E6A3
:102CC00092E00E94F507E3E9F0E0649120ED37E03F
:102CD00040E050E083E692E00E94F507812C912CC1
:102CE00054018A949E012F5F3F4F38AF2FAB712C58
:102CF0003FE1632E80911304781608F0BCC1009167
:102D0000110410911204769C000D111D1124D8019C
:102D10008C91882309F4ADC011968D919C91892BDB
:102D200049F50E94E907F801C184D284E384F48460
:102D30009B01AC012C193D094E095F0969017A011B
:102D40006781708590E080E00E94752DD8015996CA
:102D50002D913D914D915C915C970E94742F0E9442
:102D6000E62FC616D706E806F90608F482C0F80171
:102D700010827FC00E94E9076B017C01D80119967F
:102D80004D915D916D917C911C9717968D919C91C1
:102D9000B0E0A0E0C41AD50AE60AF70AC816D906B8
:102DA000EA06FB0608F465C0F80121813281223071
:102DB000310509F46BC02330310509F4F2C021302C
:102DC0003105A9F6840F951FA61FB71F818792872B
:102DD000A387B487218D328D438D548D6589768983
:102DE0008789908D0E94D62DD80151962D913D91C5
:102DF0004D915C9154970E94082F6B017C0120E05B
:102E000030E040E85FE30E94153087FF34C0F801EE
:102E1000C18AD28AE38AF48AD8011396EC90139778
:102E2000F12C5D96CD90DC905E9714966C9170E0DD
:102E30006E197F09072E000C880B990B0E94772DC5
:102E4000F80121893289438954890E94D62D1B01BA
:102E50002C01B701FF0C880B990B0E94772D9B0169
:102E6000AC01C201B1010E94082F0E94E62FD601D9
:102E70006C9373943FCF80E090E0A0E8BFE3F8014B
:102E8000818B928BA38BB48B1082C6CF840F951F3E
:102E9000A61FB71F81879287A387B487218D328DA4
:102EA000438D548D658976898789908D0E94D62DB2
:102EB000D80151962D913D914D915C9154970E946E
:102EC000082F6B017C0120E030E040E85FE30E94C6
:102ED000153087FF3AC0F801C18AD28AE38AF48AA2
:102EE000D80151966D917D918D919C9154979B0144
:102EF000AC010E94082F6B017C0120E030E040E82B
:102F00005FE30E94702D87FF2BC0A7019601C701C8
:102F1000B6010E94D62D20E030E040E05FE30E9441
:102F2000D62D1B012C01F801E380F12CC58CD68C29
:102F3000648170E06E197F09072E000C880B990BD5
:102F40000E94772DA201910180CF80E090E0A0E85F
:102F5000BFE3F801818B928BA38BB48B1082C0CF1F
:102F600020E030E040E85FE3C701B6010E94072F90
:102F70006B017C01F7FAF094F7F8F09420E030E070
:102F800040E050E40E94072F9B01AC01C701B6014D
:102F90000E94D62D20E030E040E85FE30E94082F39
:102FA000BACF840F951FA61FB71F81879287A3876B
:102FB000B487218D328D438D548D658976898789BB
:102FC000908D0E94D62DD80151962D913D914D9115
:102FD0005C9154970E94082F6B017C0120E030E047
:102FE00040E85FE30E94153087FF23C0F801C18AE3
:102FF000D28AE38AF48AD80151966D917D918D91A0
:103000009C9154979B01AC010E94082F6B017C019D
:1030100020E030E040E85FE30E94702D87FF14C09D
:10302000A7019601C701B6010E94D62DA7019601FE
:1030300070CF80E090E0A0E8BFE3F801818B928B35
:10304000A38BB48B1082D7CF20E030E040E050E477
:10305000C701B6010E94072F6B017C01AC019B01E7
:103060000E94D62DA70196010E94D62D20E030E0C7
:1030700040E050E493CF0AE415E0D8011196ED91B9
:10308000FC911297309741F013968C91811184C175
:10309000F8018481811186C10A5F1F4FF5E0023675
:1030A0001F0759F720910302A091010230E0B0E020
:1030B0000E94F82EA50194010E94C62E69017A0192
:1030C0008091440220916F02422E512C712C612C70
:1030D00083FF7BC12091720230E050E040E0241970
:1030E000350946095709A0910F01B0E00E94E52E6D
:1030F000A50194010E94C62E240DA22FB0E0A701C5
:1031000096010E94E52EA50194010E94C62EA1E021
:10311000BFEF0E94F32EA50194010E94C62ECA01A2
:10312000B90161507F4F8F4F9F4F89E00E94670721
:1031300080914302A0916B0283FF63C14A2E512C00
:10314000712C612C20916E0230E050E040E0241997
:10315000350946095709A0910B01B0E00E94E52E00
:10316000A50194010E94C62E240DA22FB0E0A70154
:1031700096010E94E52EA50194010E94C62EA1E0B1
:10318000BFEF0E94F32EA50194010E94C62ECA0132
:10319000B90161507F4F8F4F9F4F85E00E946707B5
:1031A00080914202A091670283FF4CC14A2E512CAC
:1031B000712C612C20916A0230E050E040E024192B
:1031C000350946095709A0910701B0E00E94E52E94
:1031D000A50194010E94C62E240DA22FB0E0A701E4
:1031E00096010E94E52EA50194010E94C62EA1E041
:1031F000BFEF0E94F32EA50194010E94C62ECA01C2
:10320000B90161507F4F8F4F9F4F8AE00E9467073F
:1032100080914102A091630283FF35C14A2E512C57
:10322000712C612C2091660230E050E040E02419BE
:10323000350946095709A0910301B0E00E94E52E27
:10324000A50194010E94C62E240DA22FB0E0A70173
:1032500096010E94E52EA50194010E94C62EA1E0D0
:10326000BFEF0E94F32EA50194010E94C62ECA0151
:10327000B90161507F4F8F4F9F4F86E00E946707D3
:10328000109256028091570290915802A0915902D3
:10329000B0915A02892B8A2B8B2BD9F00E94E90717
:1032A0000091450210914602209147023091480258
:1032B000601B710B820B930B6937710581059105BA
:1032C00040F0109257021092580210925902109238
:1032D0005A0280912603833011F00C94FF2C8091C8
:1032E0002F03882309F4F0C080E4809386051092B0
:1032F0006505109264051092690510926805109298
:1033000067051092660510926C0510926D0510927B
:103310006E0510926F0510928505109284058091BC
:10332000860586FD66C2E0918705F09188052285B5
:10333000822F8F7B843009F053C18585968586580E
:1033400091098C35910508F04BC18785908924300F
:1033500009F0E1C08197489708F042C181899289BC
:103360000897089708F03CC181E08093860580911A
:103370008B0590918C0590936705809366058091ED
:103380008F059091900590936905809368058091D1
:10339000890590918A05FCC0B8018FEF09958130AD
:1033A00009F076CED80114961C9214978C918F5FF9
:1033B0008C931196ED91FC91B8010995823009F03A
:1033C0006BCEF8011382158267CE82FF0CC020916C
:1033D000710230E050E040E02419350946095709F0
:1033E000A0910E0182CE81FF88CE2091700230E044
:1033F00050E040E02419350946095709A0910D0114
:1034000074CE2A2F4A2E512C712C612C82FF0CC0B5
:1034100020916D0230E050E040E024193509460962
:103420005709A0910A0199CE81FF9FCE20916C028D
:1034300030E050E040E02419350946095709A091D1
:1034400009018BCE2A2F4A2E512C712C612C82FF20
:103450000CC02091690230E050E040E024193509A9
:1034600046095709A0910601B0CE81FFB6CE209142
:10347000680230E050E040E0241935094609570958
:10348000A0910501A2CE2A2F4A2E512C712C612C1D
:1034900082FF0CC02091650230E050E040E024192A
:1034A000350946095709A0910201C7CE81FFCDCE4B
:1034B0002091640230E050E040E0241935094609CB
:1034C0005709A0910101B9CE10928605809164053B
:1034D0009091650590938A05809389058091680590
:1034E00090916905B0E0A0E080938F0590939005DE
:1034F000A0939105B0939205809166059091670520
:10350000B0E0A0E080938B0590938C05A0938D058F
:10351000B0938E05ECCE825491098F9708F060C06D
:1035200043E060E28CEE91E00E945F11882309F491
:1035300057C080916C0590916D0540916E0550913A
:103540006F05242F30E030936905209368059C01B6
:103550002E3E67E8360709F583E090E09093650515
:1035600080936405852F90E09093670580936605AE
:1035700080E290E090938505809384058AE795E04A
:103580000E94DC048091860580FF33C189E090E0D1
:1035900090936505809364052CC19095891310C0A4
:1035A00090E09093670580936605852F809548137A
:1035B0000CC088E090E09093650580936405D8CFB7
:1035C0003093670520936605F0CF8AE090E09093F2
:1035D0006505809364054093680550936905C8CFDD
:1035E000E0918705F09188058285843609F08FC0C7
:1035F00088ED91E00E947711882309F488C043E0A8
:1036000060E188ED91E00E945F11882309F47FC09A
:10361000D0906C050D2D10916D059BE0E92EF12CDD
:10362000023080E21807F9F08EE0E82EF12C0A3A19
:103630009AE51907C1F0BDE0EB2EF12C0435A2E3A9
:103640001A0789F0AFE0EA2EF12C0330B1E01B0736
:1036500051F020E1E22EF12C0332EBEC1E0719F0C1
:10366000FCE0EF2EF12C43E260E288ED91E00E9455
:103670005F11882309F44BC0D12640916C0550910D
:103680006D0560916E0570916F05CA01E4E0969535
:103690008795EA95E1F79093670580936605862FF5
:1036A00090E09093690580936805942F962795275D
:1036B0008D2D82958F708D258F70242F2F708217FE
:1036C00019F084E080938605FCE0EF16F10449F4DC
:1036D0008091860580618093860510936B05009329
:1036E0006A05971729F08091860584608093860586
:1036F00080E390E09093850580938405F0926505C2
:10370000E09264058AE397E00E94DC0472C0E091D5
:103710008705F09188058285803209F094C041E0E8
:103720006FE084EC91E00E945F11882309F48BC064
:10373000E0918705F0918805DF01A75BBF4F8D9170
:103740009C910497059708F07EC080916C0590913C
:103750006D05A0916E05B0916F059C012F71332707
:10376000309367052093660555E0B695A795979524
:1037700087955A95D1F7292F2370AC01552750937F
:10378000690540936805438554854536544008F0E3
:1037900053C0309193053F5F30939305323018F05A
:1037A00031E03093860590FF15C040918605342F97
:1037B00032603093860530918F05E09190058095B9
:1037C000831721F0942F96609093860530936805B7
:1037D000E09369052150223098F586E190E09093BE
:1037E0006505809364058FE090E090938505809354
:1037F00084050E94E9076093450270934602809316
:1038000047029093480280916C0590916D05A091BC
:103810006E05B0916F050097A105B10511F40C94E8
:10382000E82C8093570290935802A0935902B093CA
:103830005A0281E00C94F72C10929305223069F221
:1038400084E090E0CCCF80EB91E00E947711882358
:1038500009F44EC0E0918705F091880582858A3190
:1038600029F08A3219F0803209F042C090E0BC01A0
:103870006150710977FDBC017595679543E080EB58
:1038800091E00E945F11882399F180916C059091DD
:103890006D05A0916E05B0916F059C012F773327C0
:1038A000309369052093680537E0B695A7959795FD
:1038B00087953A95D1F79093670580936605E091D7
:1038C0008705F0918805228530E0C901019797FDB1
:1038D000C90195958795909385058093840587E127
:1038E00090E0909365058093640580EE91E00CCFA5
:1038F00081E08093880249E753E050938602409329
:103900008502109287020E94EB04813009F066C0A4
:10391000C12CD12C760110E0E0918705F09188054B
:103920009285809188028917E0F40E94EB04082FA9
:103930000E94EB0401110BC0813009F04FC0CC0C88
:10394000DD1CEE1CFF1C6894C0F81F5FE5CF013042
:1039500009F044C0811142C0CC0CDD1CEE1CFF1CE0
:10396000F4CF812F90E09093850580938405C092D9
:103970006C05D0926D05E0926E05F0926F058C2D6E
:103980008F7390E09093690580936805960116E027
:10399000369527951A95E1F72F71332730936705F0
:1039A00020936605960122273071232B31F4805C29
:1039B0009F4F909369058093680580E88093860502
:1039C000D3FE03C088E88093860581E190E0909360
:1039D0006505809364058FEC99E096CEE0918705AC
:1039E000F09188058585968588974D9708F046C0A3
:1039F000878590890C970B9708F040C083E08093EF
:103A000088028CEB91E0909386028093850210925D
:103A100087020E94EB04813089F50E94EB0481113A
:103A20002DC0C12CD12C760110E0E0918705F091DA
:103A30008805928580918802891708F07CC00E94D1
:103A4000EB04782E1330B1F00E94EB04082F1330F2
:103A500021F40E94EB04081311C051E0751261C0FB
:103A600001110CC0CC0CDD1CEE1CFF1C6894C0F8CE
:103A70001F5FDBCF0E94EB04781631F3E0918705DE
:103A8000F091880522852C3311F0243099F4858536
:103A900096858638910570F0833E910508F491C0B3
:103AA0008E58910968EB7BE007E010E082369105C3
:103AB00008F48BC0E0918705F091880582858232F9
:103AC00009F4E8C0843209F00FC184E291E00E9459
:103AD0007711882309F408C143E060E184E291E0B2
:103AE0000E945F11882309F4FFC080916C059091BA
:103AF0006D05A0916E05B0916F05492F5A2F6B2F60
:103B00007727509369054093680599279093670537
:103B10008093660580E190E090938505809384050D
:103B2000E0C07110ABCF013009F0A8CFCC0CDD1C88
:103B3000EE1CFF1C9DCF812F90E090938505809314
:103B40008405C0926C05D0926D05E0926E05F092EE
:103B50006F052C2D30E08D2D143200F580E8809318
:103B6000860530936905209368058D2D90E090932C
:103B7000670580936605E0FE03C088E880938605AC
:103B8000153128F08091860580618093860583E752
:103B90009AE00E94DC0482E190E0FACC90E89093F5
:103BA0008605D7FE03C098E8909386053093690593
:103BB000209368058F7790E0909367058093660562
:103BC000E6CF68E670E106E010E087859089243052
:103BD00061F44D97469708F06DCF818992890797D8
:103BE000089708F067CF81E8C0CB0E949210882325
:103BF00009F460CF43E06CE180E191E00E945F1145
:103C0000882309F457CF80E88093860580916C055E
:103C100090916D05A0916E05B0916F056C017D01CD
:103C2000E4E0F694E794D794C794EA95D1F7A60117
:103C3000D0926905C09268056C017D01F4E1F694AB
:103C4000E794D794C794FA95D1F7D0926705C092BC
:103C5000660524E030E060E0742F7F70670F74E049
:103C6000569547957A95E1F721503109A9F78627AE
:103C70008F709927AA27BB27892B8A2B8B2B19F0AA
:103C800084E88093860510936505009364058CE1B4
:103C900090E0ABCD838594858C3E9C4508F0A9CD02
:103CA000858596850897079708F0A3CDE35BFF4FBE
:103CB000808191810897079708F09BCD81E08093E0
:103CC000860580918B0590918C0590936705809374
:103CD000660580918F05909190059093690580937A
:103CE000680585E090E054CCE0918705F091880567
:103CF0001285812F8F7D843419F0163009F07EC033
:103D000088E391E00E947711882309F477C0163088
:103D1000B1F481E08093860580918B0590918C05AC
:103D2000909367058093660580918F05909190052B
:103D3000909369058093680585E190E029CC43E084
:103D400060E288E391E00E945F11882309F456C085
:103D500010916E0500916F0590916C0580916D0535
:103D60009093660580936705E0918705F09188053B
:103D70008285843651F543E460E188E391E00E9456
:103D80005F118823D9F180916C0590916D050095A4
:103D9000101731F09095981719F094E090938605DC
:103DA000982F812F909369058093680580E390E0B8
:103DB000909385058093840584E190E09093650558
:103DC000809364058FE595E09FCC802F8095181334
:103DD0000FC0812F90E0909369058093680580E281
:103DE00090E0909385058093840583E190E0E6CF91
:103DF000C8019093680580936905F1CFE09187052C
:103E0000F09188058285843279F58CE491E00E94F6
:103E10007711882349F143E060E18CE491E00E944E
:103E20005F11882309F110916C0580916D058095D3
:103E3000181719F084E0809386058DE692E00E94C1
:103E4000DC04812F90E090936905809368051092BF
:103E500067051092660580E190E090938505809358
:103E600084058DE190E094CBE0918705F091880581
:103E700082858434D1F480E691E00E947711882312
:103E8000A1F043E060E280E691E00E945F118823A8
:103E900061F080E88093860580E290E0909385054C
:103EA000809384058CE190E073CB84E791E00E94DD
:103EB0007711E0918705F09188059285882309F4B0
:103EC00055C0943209F052C043E060E184E791E0CC
:103ED0000E945F11882309F449C0E0918705F091A1
:103EE0008805DF01AF5ABF4F8D919C9102970497CF
:103EF000E8F580E88093860590916C0540916D050A
:103F0000292F342F542F52955F704F70A4E03695AF
:103F10002795AA95E1F72F709F708FE0852784275A
:103F20008227981719F084E8809386058385948505
:103F3000883F914128F480918605826080938605B0
:103F40005093660510926705B0E14B9FC0011124A4
:103F5000822B909369058093680580E190E09093AF
:103F60008505809384058AE190E012CB88E891E092
:103F70000E947711E0918705F0918805928588234A
:103F800081F1943271F543E060E188E891E00E94AC
:103F90005F11882331F1E0918705F0918805EF5A90
:103FA000FF4F8081918108970797D8F480916C0525
:103FB00090916D0598279F3FA1F490E0909369053B
:103FC0008093680580E190E0909385058093840557
:103FD00089E190E0909365058093640588ED94E015
:103FE00093CBE0918705F09188058285803709F0B1
:103FF00059C041E068E08CE991E00E945F1188239C
:1040000009F450C080916C0590916D05A0916E05EA
:10401000B0916F05892B8A2B8B2B09F043C041E1AE
:104020006FE18CE991E00E945F118823D9F1C09083
:104030006C05D0906D05E0906E05F0906F054FE433
:1040400061E18CE991E00E945F11882359F1909120
:104050006D0580916E0589279827892790936905BA
:1040600080936805C0926C05D0926D05E0926E0554
:10407000F0926F05D0926705C0926605F0926B05CD
:10408000E0926A058BE190E090936505809364056A
:1040900088E390E0909385058093840580E8809381
:1040A0008605A7CBA0918705B09188051A968C91BB
:1040B0001A97843108F434C182E3EFA9F8AD119264
:1040C0008A95E9F71A962C911A972250330B60E0E3
:1040D00043E0842F90E082179307D4F4880F991F50
:1040E000FD01E80FF91F838594858233910508F05F
:1040F00017C1E1E0F0E0EC0FFD1FE80FF91F508160
:104100005F5F50836817190608F4682F4E5FE1CF90
:104110001EAA1DAA9E012B5C3F4FAE014A5C5F4F59
:10412000CE0101960E94A314882309F4F9C082E30A
:10413000AFA9B8AD1D928A95E9F7A0918705B09116
:1041400088051A962C911A972250330B60E044E0B0
:10415000842F90E082179307D4F4880F991FFD01F4
:10416000E80FF91F838594858233910508F0D8C044
:10417000E1E0F0E0EC0FFD1FE80FF91F50815F5FF9
:1041800050836817190608F4682F4E5FE1CF1CAA08
:104190001BAA9E012D5C3F4FAE014C5C5F4FCE01D0
:1041A00001960E94A314882309F4BAC0E091870500
:1041B000F0918805828586958150990BCBA84DA8F2
:1041C0009C0121503109CC2019F0411001C0C901D6
:1041D00090938505809384059C012150310995E0D9
:1041E000369527959A95E1F72FAF411003C0CC2063
:1041F00009F496C02CA892E3299E100111246EA800
:10420000699E30011124499E20011124C99E60013C
:1042100011248EAFB3E0BDAFF12C8EAD813208F02A
:1042200080E29DA9992309F467C0E1E0F0E0F093F2
:104230006505E0936405E12C81019301A2016DAD58
:104240000E94AB10882309F46BC034E0F39EF001A8
:104250001124E458FA4F80916C0590916D05A0915E
:104260006E05B0916F0580839183A283B3834DADBA
:10427000405C4DAFF3945EAD50525EAF6FAD6F15C5
:1042800060F680ED97E00E94DC04E0918705F091F4
:1042900088054585568582E3849F9001859F300D72
:1042A0001124309371052093700547855089849FB0
:1042B0009001859F300D1124309373052093720572
:1042C000709279056092780530927B0520927A058C
:1042D00041145104E1F050927505409274053092FA
:1042E000770520927605C114D10409F482CAD092D0
:1042F0007B05C0927A057DCA22E030E030936505E7
:1043000020936405E12C86019301A30198CF70925C
:10431000750560927405D0927705C092760569CADA
:104320000091870510918805D8011A968C918630E6
:1043300008F45FCAFF24F39425EC3DE94CE151E811
:10434000C82ED12C8AE0E82E8F2D90E0BC016E5F44
:104350007F4F6C157D05DCF5660F771FF801E60FC2
:10436000F71F63857485880F991FF801E80FF91FFF
:1043700083859485E69ED001E79EB00D1124FC0153
:10438000EE0FFF1FEE0FFF1FEE0FFF1FAE17BF0751
:10439000D0F0E89EF001E99EF00D1124CB0163E01E
:1043A000880F991F6A95E1F7E817F90770F4E2E0C2
:1043B00063E971E080E091E00E94942E9B01AC01E2
:1043C0002E27F394C1CFE0E0F3CFE1E0F1CF2093CB
:1043D0006C0530936D0540936E0550936F0580E238
:1043E00090E0909385058093840510926505109266
:1043F0006405FFC900E00C94392DF092040285ECAD
:1044000098E00E94B51128EE33E040E050E06FEFF5
:1044100083E092E00E94F5070C945E2D1092040256
:1044200089EB98E00E94B51124EF31E040E050E0C4
:1044300060E083E092E00E94F507809155028230AF
:10444000B9F4109255028CE998E00E948F06809191
:104450005402813009F48AC008F483C0823009F420
:1044600088C0833009F488C08AE698E00E94B511BC
:1044700080915302882399F01092530286E598E0C8
:104480000E948F0680915202813009F47DC008F4A9
:1044900076C0823009F47BC0833009F47BC0109170
:1044A0005102112311F40C945E2D1092510287E2F7
:1044B00098E00E94B5118091020281110EC0002384
:1044C00009F46DC010924D0210924E0210924F02EC
:1044D0001092500281E0809302028091560288235C
:1044E00009F493C08091530281118FC080915102D1
:1044F00081118BC08091570290915802A09159026E
:10450000B0915A0281153FEE930731E0A3073EEFC9
:10451000B30709F495C081159F4EA105BF4F09F05F
:1045200074C084E198E00E94B51180910202882352
:1045300009F46BC080910402882309F46AC0609179
:1045400001026F3F09F444C0673E08F03FC0675E58
:104550002AE530E040E050E081E092E00E94F5077B
:1045600054C086E998E00E94B5117ECF8FE898E0AC
:10457000FACF8AE898E0F7CF83E898E0F4CF82E5B5
:1045800098E00E94B5118BCF8CE498E0FACF87E4D5
:1045900098E0F7CF81E498E0F4CF10E08CCFC090A2
:1045A0004D02D0904E02E0904F02F0905002C114A4
:1045B000D104E104F10409F490CF0E94E9076C15DD
:1045C0007D058E059F0508F07DCF87CF6FEFC0CFAB
:1045D0001092020280915D0590915E0583539A408E
:1045E000A1F080916105811110C081E08093610587
:1045F00023E33AE030935E0520935D059FEF9093AF
:104600005C058093600580935F05112309F4DEC08B
:104610007DC081E092E00E948E0581E080930402DB
:1046200088E098E00E94B51124EF31E040E050E0CE
:104630006FEF83E092E00E94F50710920202E5CF4F
:1046400083EF97E00E94B511809102028823E9F27E
:10465000809104028823C9F260910102653130F033
:104660006D3210F0695174CF64E172CF1092020282
:10467000112309F490C01092040286EE97E00E9484
:10468000B5112CE231E040E050E060E083E092E0E0
:104690000E94F507809155028230B9F410925502BC
:1046A00089EC97E00E948F0680915402813009F4D2
:1046B0005BC008F454C0823009F459C0833009F457
:1046C00059C087E997E00E94B51180915302882371
:1046D00099F01092530283E897E00E948F06809130
:1046E0005202813009F44EC008F447C0823009F408
:1046F0004CC0833009F44CC080915102882331F0C2
:104700001092510284E597E00E94B511C0905702C3
:10471000D0905802E0905902F0905A02C701B601B9
:104720000E94E40F019609F451C08091530288233E
:1047300009F408C180E497E00E948F06C701B60122
:104740000E94E40F0E94D1116091570270915802AB
:104750008091590290915A020E940510FBC083EC8F
:1047600097E00E94B511ADCF8CEB97E0FACF87EBC5
:1047700097E0F7CF80EB97E0F4CF8FE797E00E94C8
:10478000B511BACF89E797E0FACF84E797E0F7CF82
:104790008EE697E0F4CF80915D0590915E0583539E
:1047A0009A40A1F080916105811110C081E0809351
:1047B000610523E33AE030935E0520935D059FEFAA
:1047C00090935C058093600580935F05002351F111
:1047D00080917602811126C080915302811122C0FE
:1047E0008091490290914A02A0914B02B0914C02F3
:1047F00081159F4EA740B84FA9F480915502813092
:1048000009F4F1C008F4EAC0823009F404C18091CF
:104810000402811107C081E08093040283E196E0E5
:104820000E94B51180910002811105C0002319F08A
:1048300081E0809300028091530281110C94612DDC
:1048400080910402882309F494C1C0905702D0904B
:104850005802E0905902F0905A02C114FFEEDF06B0
:10486000F6E0EF06F9EFFF0659F008F0D7C0C114E3
:104870003FEED30637E0E30638EFF30609F0E0C079
:1048800080915502882319F0823009F0D9C08091B7
:104890007302882309F46DC10E94E90740907702F2
:1048A000509078026090790270907A0264197509CC
:1048B00086099709693E73408105910508F459C13D
:1048C00080917502811155C181E0809375028093BA
:1048D0005302C114BFEEDB06B6E0EB06B9EFFB06F0
:1048E00009F426C108F010C183E0C114FFEEDF0611
:1048F000F7E0EF06F8EFFF0609F41BC181E08093B3
:104900005B052EE23DE030935805209357059FEF5D
:104910009093560580935A05809359058FEF95E043
:104920000E948F0680915202813009F40AC108F476
:1049300003C1823009F408C1833009F081C08AEED6
:1049400095E0FCC0809155028130E1F0C0F08230EA
:1049500009F441C080910402811138CF81E0809335
:1049600004028EEA96E00E94B51128EE33E040E0A2
:1049700050E06FEF83E092E00E94F50727CF8DE2D1
:1049800097E0DACE8AE197E00E948F06C701B60170
:104990000E94E40F0E94D1111092550281E097E02D
:1049A0000E94B51188EE96E00E94B5116091570201
:1049B000709158028091590290915A020E940510FC
:1049C00080915102882331F2109251028EEC96E0D0
:1049D0000E94B511BFCF8AEB96E0AECE88E996E093
:1049E0000E94B51114CF82E896E00E94B511109292
:1049F000550289E696E00E94B51180E596E00E9496
:104A0000B51180915102882309F401CF109251020F
:104A100086E396E0E5CF8FE196E0E2CFC1144FEE5A
:104A2000D40645E0E4064AEFF40609F429CFC114A0
:104A30005FEED50654E0E5065BEFF50609F420CFFE
:104A4000112309F496C080915302882309F491C080
:104A50008091570290915802A0915902B0915A0248
:104A600081154FEE940746E0A40749EFB40759F0CB
:104A700008F06DC081156FEE960767E0A60768EF36
:104A8000B60709F076C02091520281153FEE9307D8
:104A900036E0A30739EFB30709F4DEC008F0C0C061
:104AA00081159F4EA740B84F09F4DAC081E080938A
:104AB0007502F090520290915302992309F4DFC0DD
:104AC00080935B052EE23DE0309358052093570517
:104AD0009FEF9093560580935A058093590580ED7A
:104AE00095E00E948F06F1E0FF1609F4C2C0FF16A0
:104AF00008F4BAC022E0F21609F4BEC033E0F312A3
:104B000038C08BEB95E0B2C0C1142FEED20625E081
:104B1000E2062AEFF20669F0C1143FEED30634E054
:104B2000E3063BEFF30609F0E9CE10925202E6CE1F
:104B300082E080935202E2CE8BEF95E00E94B511A5
:104B40007FCF85EF95E0FACF80EF95E0F7CF811525
:104B5000EFEE9E07E5E0AE07EAEFBE0709F493CF5C
:104B60008115FFEE9F07F4E0AF07FBEFBF0709F4E5
:104B70008ACF80915602882309F4F3C080915302B2
:104B8000882309F4EEC08091570290915802A091B9
:104B90005902B0915A028115EFEE9E07E1E0AE078F
:104BA000EEEFBE0709F47FC181159F4EA105BF4FEF
:104BB00009F0D7C082E895E00E948F0680915202EA
:104BC000813009F494C008F48DC0823009F492C099
:104BD000833009F492C080910002882309F4C1C097
:104BE00080915202813009F48BC008F498C0823061
:104BF00009F48BC0833009F48DC0E9ADFAAD608152
:104C00006F3F09F493C0673E08F08EC0675E2AE5E7
:104C100030E040E050E089AD9AAD0E94F507A1C0B8
:104C200081156FEE960765E0A6076AEFB60771F08B
:104C300081159F4EA440BB4F09F038CF211103C00E
:104C40001092530233CF1092520230CF81E02130C4
:104C5000B9F3809352022ACF82E02230D1F7F0CF0D
:104C6000233071F383E0F5CF8CEC95E00E94B51111
:104C700080CF86EC95E0FACF81EC95E0F7CF2091DC
:104C80005705309158052C58384089F090915B05B4
:104C900091110DC02CE838E030935805209357054A
:104CA0009FEF9093560580935A058093590588EAA3
:104CB00095E00E948F0651E0F51671F0F51648F068
:104CC00062E0F61661F083E0F81253CF83E995E0D5
:104CD000CDCF84EA95E0CACF8EE995E0C7CF89E9C8
:104CE00095E0C4CF8EE795E00E94B51174CF88E7B8
:104CF00095E0FACF83E795E0F7CF8DE695E0F4CF26
:104D00002BE632E03AAF29AF78CF47E652E05AAF10
:104D100049AF73CF83E692E09AAF89AF6ECFAFE62B
:104D2000B2E0BAAFA9AF69CF6FEF71CF10920002B6
:104D300080915D0590915E058E5D9E4091F0809121
:104D4000610581110EC08EED9EE090935E0580930B
:104D50005D058FEF80935C0581E080936005809313
:104D60005F0580915302882309F4B5C680917302D0
:104D70008111B3C60E94E907C0907702D0907802F3
:104D8000E0907902F0907A026C197D098E099F09F2
:104D9000613177428105910508F49FC61092530254
:104DA00080915705909158058C58984091F08091CA
:104DB0005B0581110EC08CE898E0909358058093B4
:104DC00057058FEF8093560581E080935A058093B5
:104DD000590589E295E00E948F0680915202813048
:104DE00009F4EBC008F4E4C0823009F4E9C0833070
:104DF00009F4E9C020915302222309F4F6C08091FE
:104E00005602882309F4F1C080915702909158020C
:104E1000A0915902B0915A0281153FEE93073CE0F0
:104E2000A30733EFB30721F108F07EC181155FEED0
:104E3000950752E1A5075DEEB507D1F008F04AC12C
:104E40008115EFEE9E07E5E1AE07EAEEBE0781F0C1
:104E500008F0BCC081153FEE930737E1A30738EE99
:104E6000B30731F081159F4EA641B94E09F0BDC080
:104E700080915705909158058D5A9C4009F4B5C012
:104E800080915B058111B1C08DEA9CE0909358053B
:104E9000809357058FEF8093560581E080935A05E4
:104EA00080935905A2C08AE595E00E948F06809103
:104EB0005202813009F452C008F44BC0823009F428
:104EC00050C0833009F450C080910002882309F457
:104ED00048CF80915202813009F449C008F456C08D
:104EE000823009F449C0833009F44BC090916F02BD
:104EF00060916B023091670220916302EBADFCADD3
:104F00008081E82FF0E0A92FA60FBB27BB1FAD01C2
:104F1000430F511D420F511D4E1B5F0B4233510574
:104F2000D4F5960F62E3691B631B621B680F681759
:104F3000A0F5262F30E0285E3F4F2E173F0714F4D0
:104F400067EE680F2AE530E040E050E08BAD9CADA5
:104F500064CE86E595E00E94B511B6CF80E595E078
:104F6000FACF8BE495E0F7CF85E495E0F4CF2BE61C
:104F700032E03CAF2BAFBACF47E652E05CAF4BAF6D
:104F8000B5CF83E692E09CAF8BAFB0CFAFE6B2E097
:104F9000BCAFABAFABCF60E0CACF10920002809144
:104FA0005D0590915E058E5D9E4009F0C8CED9CE1C
:104FB00085E295E00E94B5111DCF8FE195E0FACF13
:104FC0008AE195E0F7CF84E195E0F4CF81155FEEBB
:104FD000950754E1A5075BEEB50709F449CF8115A4
:104FE0009F4EA341BC4E09F443CF3091550200239C
:104FF00009F412C18091760281110EC1211165C59B
:1050000031110AC18091490290914A02A0914B024C
:10501000B0914C0281155FEE950753E1A5075CEE58
:10502000B50759F008F0E6C08115EFEE9E07E7E1FD
:10503000AE07E8EEBE0709F0EFC081153FEE93071B
:1050400033E1A3073CEEB30709F48CC108F05FC15C
:1050500081159F4EA741B84E09F492C181E080931B
:105060005502112309F4DDC0809157029091580236
:10507000A0915902B0915A028115FFEE9F07F3E10A
:10508000AF07FCEEBF0709F4D1C108F087C1811555
:105090009F4EA741B84E09F0C4C08091540283309E
:1050A00009F4BFC081E08093750283E080935402CD
:1050B00083E693E00E948F068CE593E00E94B51191
:1050C00080915102882309F4ACC01092510282E40D
:1050D00093E08DC18115EFEE9E07EFE0AE07E0EFA4
:1050E000BE0709F4C5CE80F481153FEE930731E188
:1050F000A3073EEEB30709F4BBCE81159F4EA04136
:10510000BF4E09F072CFB4CE81155FEE95075EE019
:10511000A50751EFB50709F4ABCE81159F4EAD4001
:10512000B24F09F062CFA4CE8115EFEE9E07E6E004
:10513000AE07E9EFBE0709F49BCE50F581153FEEAF
:10514000930739E0A30736EFB30709F491CE80F453
:1051500081155FEE95075BE0A50754EFB50709F4ED
:1051600087CE81159F4EAA40B54F09F03ECF80CE25
:105170008115EFEE9E07E8E0AE07E7EFBE0709F402
:1051800077CE81159F4EA740B84F09F02ECF70CE35
:1051900081153FEE930733E0A3073CEFB30709F413
:1051A00067CE80F481155FEE950755E0A5075AEFAD
:1051B000B50709F45DCE81159F4EA440BB4F09F0A1
:1051C00014CF56CE8115EFEE9E07E1E0AE07EEEF6D
:1051D000BE0709F44DCE8115FFEE9F07A105FFEF35
:1051E000BF0709F445CE81159F4EA240BD4F09F07F
:1051F000FCCE3ECE8115FFEE9F07FFE0AF07F0EF3C
:10520000BF0709F41ACF81152FEE92072BE0A207F2
:1052100024EFB20709F411CF112319F0313009F44A
:1052200023CF80915302811130C1809104028823E1
:1052300009F42BC1C0905702D0905802E090590257
:10524000F0905A02C1146FEED60663E1E6066CEEEA
:10525000F60659F008F007C1C1149FEED90697E190
:10526000E90698EEF90609F010C180915502811106
:105270000CC180917302882309F42AC40E94E907B3
:1052800040907702509078026090790270907A0294
:105290006419750986099709693E7340810591056E
:1052A00008F416C480917502811112C491E09093A4
:1052B000750282E080935502C114FFEEDF06F3E130
:1052C000EF06FCEEFF0609F493C108F07AC183E013
:1052D000C1143FEED30637E1E30638EEF30609F4D6
:1052E00087C185E293E00E948F068091540281304D
:1052F00009F486C108F47FC1823009F484C1833087
:1053000009F484C185EF92E00E94B511BEC08115F9
:105310006FEE96076FE0A60760EFB607A9F081155C
:105320009F4EAB40B44F09F099CE1092540289EFD2
:1053300094E00E948F0683EF94E00E94B5118CEDFB
:1053400094E00E94B5118ACE81E08093540281ECF2
:1053500094E00E948F068AEB94E00E94B51183EAE4
:1053600094E0EFCF82E08093540288E894E00E94BA
:105370008F0683E894E00E94B5118CE694E0E1CFBB
:1053800083E08093540281E594E00E948F068AE4D2
:1053900094E00E94B51183E394E0D3CF81154FEEE2
:1053A00094074FE0A40740EFB40721F181159F4E09
:1053B000AB40B44F09F035CF80915402882309F4F3
:1053C00030CF81E0809375021092540287E194E01F
:1053D0000E948F0681E194E00E94B51180915102F4
:1053E000882309F41ECF1092510287EF93E00E94A8
:1053F000B51117CF80915402813009F412CF81E0AA
:1054000080937502809354028BED93E00E948F0687
:1054100084ED93E00E94B51180915102882309F434
:1054200000CF109251028AEB93E0E1CF80915402B9
:10543000823009F4F6CE81E08093750282E0809399
:1054400054028EE993E00E948F0689E993E00E945E
:10545000B51180915102882309F4E3CE10925102D4
:105460008FE793E0C4CFC114AFEEDA06AFE0EA06EF
:10547000A0EFFA0609F4F9CEC114BFEEDB06BBE0DB
:10548000EB06B4EFFB0609F4F0CE0023F1F18091B6
:10549000760281113AC080915302811136C0809109
:1054A0005502823091F58091490290914A02A09173
:1054B0004B02B0914C0281156FEE960763E1A6078F
:1054C0006CEEB60709F4C0C008F0A3C081159F4E6A
:1054D000A741B84E09F4BEC0809155028230D1F088
:1054E00089ED92E00E948F0680915402813009F488
:1054F000BCC008F4B5C0823009F4BAC0833009F4E6
:10550000BAC088EA92E00E94B511809155028230BB
:1055100009F0C6C0C0905702D0905802E0905902DE
:10552000F0905A02C1144FEED40643E1E4064CEE6B
:10553000F40659F008F0A2C0C1146FEED60667E178
:10554000E60668EEF60609F0ABC080917302882388
:1055500009F4ABC00E94E9074090770250907802AE
:105560006090790270907A0264197509860997092A
:10557000653F71408105910508F497C080917502DF
:10558000811193C081E080937502C114BFEEDB06E8
:10559000B3E1EB06BCEEFB0609F478C108F054C198
:1055A000C114FFEEDF06F7E1EF06F8EEFF0609F0A3
:1055B00077C080915402833009F077C087E092E091
:1055C0005AC1C1144FEED4064FE0E40640EFF40692
:1055D00061F0C1145FEED5065BE0E50654EFF50619
:1055E00009F07FCE109254027CCE9093540279CE73
:1055F0008093540276CE8FE193E00E94B51182CE63
:1056000088E193E0FACF83E193E0F7CF8CE093E079
:10561000F4CF81152FEE92072FE0A20720EFB207FB
:1056200069F081159F4EAB40B44F09F055CF809182
:105630005402811151CF109255024ECF80915402E5
:10564000813009F049CFF7CF80915402823009F0C0
:1056500043CFF1CF80915402833009F03DCFEBCF9F
:1056600083ED92E00E94B5114CCF8CEC92E0FACF22
:1056700087EC92E0F7CF80EC92E0F4CFC1148FEE8C
:10568000D8068FE0E80680EFF80609F45ECFC11473
:105690009FEED9069BE0E90694EFF90609F455CF91
:1056A00080915502823009F045C0809173028111CA
:1056B00041C00E94E907C0907702D0907802E09044
:1056C0007902F0907A026C197D098E099F09613187
:1056D00077428105910570F11092550282EE91E0BA
:1056E0000E948F0680915402813009F4DCC008F4D6
:1056F000D5C0823009F4DAC0833009F4DAC081EB16
:1057000091E00E94B51180915302882399F0109284
:1057100053028DE991E00E948F0680915202813000
:1057200009F4CFC008F4C8C0823009F4CDC083307A
:1057300009F4CDC0112319F18091750281111FC0A8
:10574000009155020130D9F48091510240915702E5
:10575000509158026091590270915A0241159FEE82
:10576000590793E169079CEE790709F4F8C008F03E
:10577000B1C041155F4E6741784E09F40BC180916D
:1057800056028823F1F0809151028823D1F0809154
:10579000570290915802A0915902B0915A02811576
:1057A0002FEE920721E0A2072EEFB20709F40DC1F8
:1057B00081159F4EA105BF4F21F488EE90E00E9415
:1057C000B511809151028823E9F080917302811113
:1057D00019C00E94E907C0907702D0907802E0904B
:1057E0007902F0907A026C197D098E099F09693857
:1057F00073418105910530F01092510284EB90E0E5
:105800000E94B511112381F08091570290915802A6
:10581000A0915902B0915A028093490290934A0292
:10582000A0934B02B0934C0280E090E0892B11F4DE
:105830000C9477160E940C06882311F40C947716AA
:105840000E9400000C947716C1142FEED2062FE0B0
:10585000E20620EFF20691F0C1143FEED3063BE0E2
:10586000E30634EFF30609F01BCF80915402811157
:105870001CCF80E892E00E94B51112CF80915402B3
:10588000813009F012CF87E592E0F5CF8091540284
:10589000823009F00ACF80E392E0EDCF8CED91E009
:1058A0000E94B5112CCF85ED91E0FACF80ED91E00B
:1058B000F7CF89EC91E0F4CF89E991E00E94B5112E
:1058C00039CF83E991E0FACF8EE891E0F7CF88E80D
:1058D00091E0F4CF4115EFEE5E07EFE06E07E0EFE9
:1058E0007E0711F141155F4E6B40744F09F047CFB1
:1058F00090915402911143CF08270093510282E7FF
:1059000091E00E948F0689E691E0011102C084E6D1
:1059100091E00E948F068FE691E00E948F068AE157
:1059200092E00E94C3112BCF00915402013009F084
:1059300026CF0827009351028EE491E00E948F0643
:1059400085E491E0011102C080E491E00E948F069D
:105950008BE491E00E948F0680E292E0E2CF90918A
:105960005402923009F00BCF0827009351028AE2CB
:1059700091E00E948F0681E291E0011102C08CE16A
:1059800091E00E948F0687E291E00E948F0687E2F5
:1059900092E0C7CF90915402933009F0F0CE0827DF
:1059A0000093510286E091E00E948F068DEF90E017
:1059B000011102C088EF90E00E948F0683E091E021
:1059C0000E948F068CE292E0ACCF86ED90E0F7CE9D
:1059D0008091570290915802A0915902B0915A02B9
:1059E000892B8A2B8B2B11F40C94191C82E0809349
:1059F000560280912603833011F410922603809181
:105A00005B0281111DC010927402109275021092F7
:105A1000760210927B0210927C0210927D0210920C
:105A20007E02109273020E94E907609377027093DE
:105A300078028093790290937A0281E080935B02EE
:105A400000917302F0905602002399F08091570262
:105A500090915802A0915902B0915A02892B8A2B39
:105A60008B2B21F0B1E0FB120C94FA2180E00E9414
:105A7000260B1091730211110C94CD22E1E0FE125D
:105A80000C945B2281E00E94260B8091570290913A
:105A90005802A0915902B0915A028115FFEE9F075A
:105AA000F3E0AF07FCEFBF0711F40C94FD21811563
:105AB0009F4EA240BD4F11F40C940E2211E00C94A5
:105AC0005B2211110C94282554C81111A7CBDFCCEF
:105AD0000111DDCC2FCE20E088CA209153028FC95E
